:020000040800F2
:100000006807002089010008910100089301000899
:100010009501000897010008990100080000000000
:100020000000000000000000000000009B0100082C
:100030009D010008000000009F010008A1010008C8
:10004000A3010008A3010008A3010008A301000800
:10005000A3010008A3010008A3010008A3010008F0
:10006000A3010008A3010008A3010008A3010008E0
:10007000A3010008A3010008A3010008A3010008D0
:10008000A3010008A3010008A3010008A3010008C0
:10009000A3010008A3010008A3010008A3010008B0
:1000A000A3010008A3010008A3010008A3010008A0
:1000B000A3010008A5090008A3010008A301000886
:1000C000A3010008A3010008A3010008A301000880
:1000D000A3010008A3010008A3010008A301000870
:1000E000A3010008A3010008A301000800F002F822
:1000F00000F03AF80AA090E8000C82448344AAF188
:100100000107DA4501D100F02FF8AFF2090EBAE885
:100110000F0013F0010F18BFFB1A43F0010318473B
:10012000241E0000441E0000103A24BF78C878C185
:10013000FAD8520724BF30C830C144BF04680C60ED
:10014000704700000023002400250026103A28BF35
:1001500078C1FBD8520728BF30C148BF0B60704739
:100160001FB51FBD10B510BD00F031F81146FFF7E7
:10017000F7FF01F0D9F800F04FF803B4FFF7F2FFF2
:1001800003BC00F057F800000948804709480047C1
:10019000FEE7FEE7FEE7FEE7FEE7FEE7FEE7FEE737
:1001A000FEE7FEE704480549054A064B7047000094
:1001B00045090008ED0000086801002068070020DC
:1001C0006803002068030020704770477047754639
:1001D00000F02CF8AE4605006946534620F00700B3
:1001E000854618B020B5FFF7DDFFBDE820404FF091
:1001F00000064FF000074FF000084FF0000B21F011
:100200000701AC46ACE8C009ACE8C009ACE8C009DD
:10021000ACE8C0098D46704710B50446AFF30080C6
:100220002046BDE81040FFF7A8BF00000048704717
:100230000801002001491820ABBEFEE7260002009D
:10024000704700002F48006820F480202D49086086
:100250000846006820F4002008600846006840F462
:10026000803008600846006840F400300860880666
:1002700024490C3108602348006820F4800021499B
:1002800008600846006840F40000086008460068FE
:1002900040F4801008600846006840F400100860D0
:1002A0000846006820F0806008600846006840F05A
:1002B000006008600846006820F08070086008460A
:1002C000006820F0007008600E480830006840F4B4
:1002D00080400C49083108600A48006820F08040DE
:1002E000084908600846006840F000400860084679
:1002F000006840F0805008600846006840F00050F8
:1003000008607047040C0140014600BF0A4800889D
:1003100040F002000028F9D00748001D018000BF0E
:100320000548008800F001000028F9D00248001DAF
:100330000088C0B2704700000838004008B5024687
:100340009200002000904FF0805013490860032075
:10035000FFF7DAFFC2F30720FFF7D6FFD0B2FFF7AF
:10036000D3FF0020FFF7D0FF8DF803000020FFF738
:10037000CBFF8DF802000020FFF7C6FF8DF80100CB
:100380000020FFF7C1FF8DF800004FF480500249B4
:100390000860009808BD0000100C014030B504460C
:1003A0002046FFF7CBFF451C2946204600F094F875
:1003B00030BD000010B5FFF745FF4048C06940F46C
:1003C00080403E49C8610846006940F480400861A9
:1003D0000846006920F48040086100203849088000
:1003E0000846008840F4007008800846008840F401
:1003F000807008800846008840F0080008800846A1
:10040000008840F0040008800846008840F0400062
:100410000880002004E04FF000512A4A1161401C7E
:1004200029498842F7DB0124002140F2FF7000F0E7
:1004300053F840F2FF70FFF781FF60B9234940F2A3
:10044000FF7000F049F840F2FF70FFF777FF1F4997
:10045000884200D100240CB346201D490870722048
:100460004870452088707220C870087115E000201F
:1004700004E04FF40051134A1161401CB0F5FA5FDB
:10048000F7DB002004E04FF000510E4A1161401CE0
:10049000B0F5FA5FF7DB00F027FBE8E740F2FE700B
:1004A000FFF77CFF40F2FE70FFF748FF0949086044
:1004B00008460068401C086010BD000000100240A3
:1004C0000038004000100140A08601004A4B494D11
:1004D000480000204400002008B502460B46920068
:1004E00000934FF08050194908600620FFF70CFF79
:1004F0004FF4805015490860000408600220FFF79F
:1005000003FFC2F30720FFF7FFFED0B2FFF7FCFEA8
:100510009DF80300FFF7F8FE9DF80200FFF7F4FED8
:100520009DF80100FFF7F0FE9DF80000FFF7ECFEDC
:100530004FF4805005490860000408600420FFF76C
:10054000E3FE4FF480500149086008BD100C0140E3
:1005500042F2107190FBF1F13F4A116011460968B7
:1005600040F271225143A0EB01114FF47A7291FBDA
:10057000F2F13A4A11603849096840F27122514358
:10058000A0EB0111354A126802EB4203C3EBC21221
:10059000A1EBC201642291FBF2F1314A11602E49B4
:1005A000096840F271225143A0EB01112B4A1268F5
:1005B00002EB4203C3EBC212A1EBC201284A12684C
:1005C00002EBC20303EB0212A1EB82010A2291FBB0
:1005D000F2F1244A11602049096840F27122514326
:1005E000A0EB01111D4A126802EB4203C3EBC212D9
:1005F000A1EBC2011A4A126802EBC20303EB02121A
:10060000A1EB8201174A126802EB8202A1EB4201C0
:10061000154A11601549884210DA0F490978144AC1
:1006200011700E49097851700D49097891700D4982
:100630000978D1700C49097811710CE048210C4AF5
:10064000117069215170452191707221D170117121
:100650000021084A116070475C0000206000002003
:1006600064000020680000206C000020FF70020081
:10067000480000205800002010B57348806940F001
:100680000400714988610846806940F0080088616B
:100690000846806940F0100088610846806940F093
:1006A000010088616948406840F00070674948600F
:1006B0006748406820F48000654948600846406803
:1006C00020F4000048600846406840F4801048600C
:1006D0000846406840F4001048605E48006820F01A
:1006E00004005C4908600846006820F008000860C3
:1006F0000846006840F0010008600846006840F0C5
:1007000002000860880553490C31086051480068B0
:1007100020F040004F4908600846006840F0800023
:1007200008600846006820F010000860084600686D
:1007300020F020000860C80546490C310860464892
:10074000006820F00400444908600846006840F052
:10075000080008600846006820F0010008600846AC
:10076000006820F00200086088053B490C310860F1
:100770003948006820F040003749086008460068A2
:1007800040F0800008600846006820F01000086013
:100790000846006820F020000860C8052E490C318A
:1007A00008602D48006820F480602B4908600846E6
:1007B000006840F4006008600846006820F480701B
:1007C00008600846006820F40070086008062249A6
:1007D0000C3108602048006820F480401E49086001
:1007E0000846006840F4004008600846006820F4AD
:1007F000805008600846006820F4005008604806F1
:1008000015490C3108601448006820F48020124912
:1008100008600846006840F4002008600846006848
:1008200020F4803008600846006820F4003008603A
:10083000880609490C31086001F052FAFFF7BAFD49
:1008400000F008F910BD0000001002400000014057
:1008500000100140040C01400408014010B500F0F4
:1008600001F810BD0CB500200190009033480068DD
:1008700040F480303149086000BF3048006800F41F
:10088000003000900198401C0190009818B9019820
:10089000B0F5A06FF1D12948006800F4003010B124
:1008A0000120009001E0002000900098012843D131
:1008B0002348006840F0100021490860084600689D
:1008C00020F0030008600846006840F0020008605D
:1008D0001A48406819494860084640684860084618
:1008E000406840F4806048600846406820F47C100E
:1008F00048600846406840F4E810486008460068D0
:1009000040F08070086000BF0C48006800F0007084
:100910000028F9D00948406820F0030007494860E2
:100920000846406840F00200486000BF0348406845
:1009300000F00C000828F9D10CBD000000100240A6
:100940000020024010B51348006840F00100114932
:10095000086008464068104908400E49486008464B
:1009600000680E4908400B4908600846006820F4FA
:10097000802008600846406820F4FE0048604FF47C
:100980001F008860FFF76AFF4FF0006004490860AD
:1009900010BD0000001002400000FFF8FFFFF6FE4F
:1009A00008ED00E010B52948008800F0010000289B
:1009B0004AD02648008820F00100244908802448B5
:1009C00001684068491C40F10000214A11605060F4
:1009D00010468268C068511C40F100001C4A9160BA
:1009E000D0601046036940695A1C40F10000184964
:1009F0000A6148618C69C869621C40F100008A6123
:100A0000C8610846026A406A511C40F10000104A61
:100A1000116250621046816AC06A491C40F10000B0
:100A20009162D0621046016B406B491C40F100009E
:100A3000116350631046816BC06B491C40F100008C
:100A40009163D06300F050F810BD00001004004026
:100A5000C800002010B52048C06940F002001E49BF
:100A6000C86148F6A2401D4908800120091F08807E
:100A70001A482038008840F00100184920390880C1
:100A80000020091D08801D20002809DB00F01F023E
:100A9000012191404209920002F1E022C2F80011C6
:100AA00000BF1D200321002804DB0A07130E0C4A97
:100AB000135406E00A07140E0A4A00F00F031B1F26
:100AC000D45400BF05482C38008840F00100034989
:100AD0002C39088010BD0000001002402C0400409A
:100AE00000E400E018ED00E00220F8490860102062
:100AF0000860202008608002086080200860800371
:100B0000F3490860F348F4490968405C44287CD004
:100B100025DC0B287AD009DC0B2862D2DFE800F054
:100B20004F627A93A9BCCEE0F5F3F2002D286ED087
:100B30000CDC0E286CD004DC0C286AD00D2850D1B7
:100B40004AE10F2879D02028F9D112E23D2875D04A
:100B5000412874D0422873D04328F0D129E162287B
:100B60006FD014DC4C286DD008DCA0F145000628BD
:100B7000D3D2DFE800F0F2F136F0EFEE502875D076
:100B8000532874D0552873D06128D8D1E8E0633851
:100B90001328C2D2DFE810F00C01220137014B010B
:100BA000250025003C0225002500250025002802FF
:100BB00000022500250085012500B60176020420EB
:100BC000C2490860402008601020C14908604020E8
:100BD0000860802008600820BC4908600004BC4907
:100BE000086076E24FF48020B84908604020086031
:100BF0001020B749086080040860400008600011B8
:100C0000B2490860B249086063E2E6E0BAE065E133
:100C1000F8E0CCE00420AD49086040200860800383
:100C2000AB49086040200860802008600003A749A5
:100C300008600820A64908604BE2F7E0C0E18EE0BA
:100C4000A2E0A0E019E10420A0490860402008606B
:100C500010209F490860402008604004086000118F
:100C60009A49086008209A49086032E26FE15CE125
:100C70001BE24FF480209549086040200860102056
:100C800093490860800408604000086008208F498C
:100C900008608F4908601CE204208C490860000548
:100CA000086010208A4908604020086040040860FD
:100CB000082086490860864908600AE204208349C2
:100CC0000860000508601020814908604020086025
:100CD0008020086008207D4908607D490860F8E1AF
:100CE00004207A4908604020086010207849086094
:100CF000800408604000086000117449086074496D
:100D00000860E6E12AE012E0FFE704206F4908608E
:100D10004020086010206E49086040200860802054
:100D2000086008206949086069490860D1E1042029
:100D3000664908604020086010206549086040202E
:100D40000860400408600820604908606049086045
:100D5000BFE184E16FE17DE06AE055E000BF00BFE4
:100D600004205A4908604020086010205849086053
:100D700080040860802008600820544908605449B5
:100D80000860A6E100BF00BF4FF480204F49086013
:100D90000001086010204E49086040200860802053
:100DA00008600820494908604949086091E100BF8E
:100DB00000BF0420454908600005086080104449D0
:100DC0000860402008608020086008203F490860D3
:100DD00000043F4908607CE100BF00BF4FF4802061
:100DE0003A490860402008601020394908604020D6
:100DF00008608020086000033449086008203449F6
:100E0000086066E100BF00BF0420304908600005AB
:100E1000086080102E49086040200860802008602B
:100E200008202A4908602A49086052E100BF00BF33
:100E300004202649086000050860801024490860E5
:100E40008000086080200860082020490860204950
:100E500008603EE14FF480201C4908604020086093
:100E600010201B490860800408608020086008206A
:100E700016490860164908602BE14FF48020134999
:100E80000860000108608010114908604020086077
:100E90008020086008200D49086000040C490860A3
:100EA00017E14FF4802009490860000108608010B4
:100EB000074908608000086080200860000303493B
:100EC000086008200249086003E1000010080140A2
:100ED000100C014048000020540000204FF48020F6
:100EE000AE490860000108608010AD4908608000CC
:100EF0000860400008600011A84908600820A8495F
:100F00000860E6E04FF48020A44908600001086012
:100F10008010A349086040200860802008600820F5
:100F20009E4908609E490860D3E004209B49086000
:100F30000005086010209A490860402008604004BD
:100F4000086008209549086095490860C1E00420C0
:100F50009249086040200860800391490860800041
:100F600008608020086008208C4908608C4908606F
:100F7000AFE04FF4802089490860000108608010CC
:100F800087490860800008604000086000118349BC
:100F90000860834908609CE04FF480207F49086026
:100FA0000001086010207E49086040200860802011
:100FB000086000037949086008207949086088E0E2
:100FC0004FF4802075490860000108608010744962
:100FD0000860402008604004086000116F49086004
:100FE00008206F49086074E04FF480206B49086066
:100FF0000001086010206A490860800408608020B1
:10100000086000036549086008206549086060E0E1
:101010004FF4802061490860000108608010604939
:101020000860800008608020086000035B49086059
:101030005B4908604DE04FF480205849086000018A
:1010400008608010564908608000086080200860B1
:1010500008205249086000045149086039E04FF403
:1010600080204E4908604020086010204C490860EC
:101070004020086040040860001148490860484961
:10108000086026E04FF480204449086000010860B1
:101090001020434908604020086080200860000359
:1010A0003E4908603E49086013E04FF480203B4908
:1010B000086040200860102039490860402008601E
:1010C0008020086008203549086000043449086021
:1010D00000BF00BF32480838006800F40070B0F567
:1010E000007F05D12F48006810B920202C490860E6
:1010F0002C48006850B92C480068012802D12020F3
:10110000274908604FF400302449086025480068EA
:1011100001280AD124480068022802D12020204951
:1011200008604FF480101D4908601E4800680228BE
:101130000AD11D480068032802D120201849086000
:101140004FF40010154908601648006803280AD1BA
:1011500015480068042802D12020114908604FF08A
:1011600000400E4908600F48006804280AD10E4864
:101170000068052802D12020094908604FF40000CA
:1011800006490860074801680068401C054A10606D
:10119000042902DB00201146086070471008014056
:1011A000100C0140540000205800002010B5564893
:1011B000D0E90010491C40F10000534AC2E9001078
:1011C0005248D0E90010491C40F100004F4AC2E9E2
:1011D00000104F48D0E90010002251405040014318
:1011E0005CD04948D0E900304A49D1E900219A1A37
:1011F00088410ED24FF48070474908604748D0E9D3
:101200000610002359405840014302D105204449AB
:1012100008604048D0E900303B4A06CA591A90415C
:101220001AD23B48D0E900303A4A12CA5A186041F3
:10123000364B0ACB511A98410ED34FF08070364985
:1012400008603648D0E90610002251405040014362
:1012500002D10020324908602D48D0E900102D4A03
:1012600018CACA1860412949D1E900319A1A814146
:1012700048D30021244A11605160244A1160516012
:101280002848D0E90020521C40F100002549C1E95E
:10129000002040F2FA70FFF781F833E01A48D0E9F5
:1012A0000010491E60F100001A4AD2E90032C91A42
:1012B00090410ED24FF48070174908601748D0E96A
:1012C0000610002359405840014302D1052014491B
:1012D00008600D4903C9401E61F100010D4B0CCBA4
:1012E0005040594008430DD14FF080700A490860C2
:1012F0000A49D1E90601002250405140084301D17A
:101300000749086010BD00001800002028000020D8
:101310002000002010000020100C01407800002068
:101320005800002030000020FFF7A6F94120FE49B8
:10133000087072204870742088706920C87063201B
:10134000087100BFF948026840684FF4FA61511A09
:1013500070F10000F6D30020F44A106050602020A5
:10136000F149087002204870002088700120C87080
:101370000820087100BFED48036840684FF47A7296
:101380009A1A70F10000F6D30020E84A106050600D
:101390004220E54908706F20487088707420C8703A
:1013A0005320087100BFE148036840684FF47A7227
:1013B0009A1A70F10000F6D30020DC4A10605060E9
:1013C00040F2FE70FEF7BAFF0446FFF7C1F800BF17
:1013D000D648026840684FF47A73D21A70F1000060
:1013E000F6D30021D14A116051604820CE490870DF
:1013F0006F204870752088707220C8705320087163
:1014000000BFCA48026840684FF47A73D21A70F17C
:101410000000F6D30020C54A1060506040F2FD7015
:10142000FEF78CFF3C21B0FBF1F42046FFF790F86B
:1014300000BFBE48016840684FF47A72891A70F1A3
:101440000000F6D30021B94A116051604320B6492B
:1014500008706F204870752088706E20C8707420E6
:10146000087100BFB148036840684FF47A729A1A55
:1014700070F10000F6D30021AC4A1160516040F2D7
:10148000FA70FEF75BFF0446FFF762F800BFA7485B
:10149000026840684FF47A71511A70F10000F6D377
:1014A0000021A24A1160516040F2FA70FEF746FF37
:1014B0009F49884204D3002140F2FA70FFF70CF8EC
:1014C0005320994908707420487041208870722018
:1014D000C8707420087100BF9448036840684FF4D6
:1014E000FA61591A70F10000F6D300218F4A116099
:1014F000516002208F49086040F2FC70FEF71EFF29
:1015000000218D4A03C240F2FB70FEF717FF002155
:101510008A4A03C2CFE385488368C2684FF4FA71F0
:101520000020C91A904128D20021804A9160D160E0
:101530008348C06880F400508149C8608148C8234E
:10154000D0E906120020591A90410BD27948006860
:10155000022803D10020774908600EE00220754977
:1015600008600AE07748D0E9041000235940584049
:10157000014302D102206F4908606C48826BC16B45
:101580004EF6602300209A1A884107D20020674A4D
:101590009063D06340F2FD70FEF700FF634801697D
:1015A000406900225140504001436ED000215F4A03
:1015B0001161516164480068644908600846008808
:1015C00000F4807048B15F48D0E900305A1C40F107
:1015D00000005C49C1E9002006E000215C4A11607E
:1015E0005160584A116051605848008800F40070FA
:1015F00048B15448D0E90220511C40F10000514A42
:10160000C2E9021006E00021514A9160D1604D4AC2
:101610009160D1604D48008800F4806048B149482D
:10162000D0E90410491C40F10000464AC2E9041008
:1016300006E00021464A11615161424A116151613F
:101640004248008800F4006048B13E48D0E90620D6
:10165000521C40F100003B49C1E9062006E0002190
:101660003B4A9161D161374A9161D1613748008825
:1016700000F4805050B13348D0E90820521C40F1AA
:1016800000003049C1E9082007E040E00021304A6D
:10169000116251622B4A116251622A484FF47A72E8
:1016A000D0E904310020D21A884101D2FFF77EFD33
:1016B0002448D0E9041000235940584001430BD17D
:1016C0004FF08070234908600021234A1160516067
:1016D0000020224A106050601A48D0E904100A2302
:1016E0005940014313D11548D0E900100023594057
:1016F000584001430BD11048D0E90020521C40F162
:1017000000001549C1E9002005200A4908600D487C
:10171000D0E906310020D3F1C80288417ED20949C0
:10172000D1E906010E4A1DE048000020C800002053
:101730009F8601005800002010000020200000209B
:10174000001001407800002008080140000000203F
:10175000A0000020100C01401800002028000020EC
:101760000800002003C2FA480CC80020D2F114017E
:10177000984130D2F648D0E900104FF47A72891AB5
:1017800070F1000027D2F348D0E900100022514048
:10179000504001431FD1EE481423D0E90821002016
:1017A0009A1A884109D2EC48D0E90020521C40F135
:1017B0000000E949C1E9002008E0E848D0E900104C
:1017C000491C40F10000E54AC2E900100121002057
:1017D000E04AC2E90010E2488169C369142200208E
:1017E000511A984164D20021DD4A9161D161D848F3
:1017F0004FF47A71D0E900320020C91A90412CD2FE
:10180000D348D0E9003041F65831591A70F1000040
:1018100023D2D048D0E90010491E00E028E170F141
:1018200000001AD3CA48D0E908310020D3F11402CD
:10183000884109D2C848D0E90020521C40F100007C
:10184000C549C1E9002008E0C448D0E90020521C85
:1018500040F10000C149C1E90020BD4841F65832BD
:10186000D0E900310020D21A884121D2B948D0E90C
:1018700000305A1E70F100001AD3B548D0E9083183
:101880000020D3F11402884109D2B348D0E90010F6
:101890000A3140F10000B04AC2E9001008E0AF4848
:1018A000D0E900100A3140F10000AC4AC2E9001052
:1018B000A748D0E902230020D2F11401984130D288
:1018C000A348D0E902304FF47A71591A70F1000040
:1018D00027D2A048D0E902100023594058400143C4
:1018E0001FD19B481423D0E9082100209A1A88416F
:1018F00009D29948D0E90020521E60F100009649B3
:10190000C1E9002008E09549D1E90040611E60F17D
:101910000000924AC2E90010012100208D4AC2E96C
:1019200002108F48036A416A0020D3F114028841F3
:1019300062D200218A4A1162516285484FF47A715D
:10194000D0E902320020C91A90412AD28049D1E957
:10195000024041F65831611A70F1000021D27D48F1
:10196000D0E90210491E70F100001AD37848142300
:10197000D0E908120020591A904109D27648D0E9DE
:101980000020521E60F100007349C1E9002008E008
:101990007248D0E90030591E60F100006F4AC2E978
:1019A00000106B4841F65833D0E9022100209A1A02
:1019B000884121D26748D0E90210491E70F1000029
:1019C0001AD36348D0E908310020D3F114028841CA
:1019D00009D26148D0E900100A3960F100005E4A7E
:1019E000C2E9001008E05D48D0E900100A3960F152
:1019F00000005A4AC2E900105748D0E900100023FD
:101A000059405840014304D101210020524AC2E903
:101A10000010514853490CC80020891A984104D23B
:101A2000012100204C4AC2E900104B484E4BD0E93E
:101A3000002100209A1A884103D218460021464A04
:101A400003C2464847490CC80020891A984103D26E
:101A50000021424A116051604048434B06C80020B3
:101A6000591A904104D2194600203C4AC2E900109C
:101A70003E484FF47A720AC80020511A98411CD28D
:101A80003348D0E90610002359405840014314D18F
:101A9000364A116051603048016840F2FC70FEF730
:101AA0001BFD2E48016840F2FB70FEF715FD304922
:101AB00040F6B2502A4A9162D0622948836AC16ACC
:101AC0002C4A40F6B250D21A884103D20021244A4F
:101AD0009162D1622248836AC16A254A40F6B250B7
:101AE000D21A884117D21E48826AC06A214B40F63A
:101AF000B251D21A88410ED253201F49087041209A
:101B00004870552088706520C8702020087100201A
:101B10001A4908606FE00E48D0E904310020D3F183
:101B2000C802884136D20A48D0E906320020D3F1F3
:101B3000C801904129D206481423D0E90812002098
:101B4000591A90411CD204480068FEF701FD52E08A
:101B500078000020A00000201000002020000020BD
:101B6000C800002040420F009F86010008000020AE
:101B700000C13832E8C43832480000205800002044
:101B80004D480068FEF7E4FC35E04C480068FEF77D
:101B9000DFFC30E04A48D0E900320020D3F1640194
:101BA000904107D34648D0E902320020D3F16401C6
:101BB00090410FD24248D0E90610002359405840C6
:101BC000014307D13D480068FEF7C2FC00203D49B3
:101BD000086010E03A48D0E908230020D2F114014F
:101BE000984104D238480068FEF7B2FC03E032485E
:101BF0000068FEF7ADFC32484FF47A71D0E900324C
:101C00000020C91A90410CD22D484FF47A71D0E9C6
:101C100002320020C91A904103D20021274A1160E4
:101C200051602A48006800F40070B0F5007F09D1C7
:101C30002748D0E900305A1C40F100002449C1E98E
:101C4000002003E00021224A1160516020484FF437
:101C50007A72D0E900310020D21A88412BD21C4878
:101C6000D0E900101B4B40F6B252C91A904122D263
:101C700019461046164AC2E900101348D0E9002060
:101C80001549D1E90031D21A884114D20020124AF4
:101C9000106050600021114A116051600748D0E97E
:101CA0000010491C40F10000044AC2E9001040F253
:101CB000FA70FEF773FB2EE42000002030000020B5
:101CC000780000205800002010000020080C01407F
:101CD0003800002000C13832180000202800002001
:101CE0009648006820F080409449086008460068E3
:101CF00020F0004008600846006840F0805008600E
:101D00000846006840F0005008600846006820F06F
:101D1000806008600846006820F00060086008469F
:101D2000006840F0807008600846006840F000706D
:101D300008600846006820F48000086008460068D3
:101D400020F4000008600846006840F48010086035
:101D50000846006840F4001008600846006820F457
:101D6000802008600846006820F4002008600846CB
:101D7000006840F4803008600846006840F4003095
:101D800008600846006820F4804008600846006843
:101D900020F4004008600846006840F48050086065
:101DA0000846006840F4005008606548006820F06C
:101DB0008060634908600846006820F000600860A1
:101DC0000846006840F0807008600846006840F0EF
:101DD000007008600846006820F4804008600846EB
:101DE000006820F4004008600846006840F4805015
:101DF00008600846006840F4005008600846006823
:101E000020F4806008600846006820F400600860E4
:101E10000846006840F4807008600846006840F496
:101E200000700860081D006820F08040091D0860EF
:101E30000846006820F0004008600846006840F04E
:101E4000805008600846006840F000500860081F95
:101E5000006820F08040091F08600846006820F0F4
:101E6000004008600846006840F08050086008465E
:101E7000006840F0005008600846006820F48000C8
:101E800008600846006820F4000008600846006802
:101E900040F4801008600846006840F400100860B4
:101EA0000846006820F4802008600846006820F496
:101EB000002008600846006840F48030086008464A
:101EC000006840F4003008600846006820F04000D8
:101ED00008600846006820F0800008600846006836
:101EE00040F0100008600846006840F020000860DC
:101EF0000220134910310860C004086020200860E7
:101F0000800208608020086020200C4910310860A1
:101F100004200B4910310860402008601020074958
:101F200010310860402008608020086008200449C3
:101F3000103108600149103108607047000C014001
:101F400000080140641F0008000000207400000029
:101F500028010008D81F000874000020F4060000C3
:101F60004401000800000000000000000000000024
:101F700000000000C8AF00000000000000000000EA
:101F800000000000960000000000000000000000BB
:101F90000000000000000000000000000000000041
:101FA00000000000000000000000000074455374B1
:101FB000207500000000000000000000000000008C
:101FC0000000000000000000000000000000000011
:081FD000000000000000000009
:04000005080000ED02
:00000001FF
